{
  "contractName": "ProjectLibrary",
  "abi": [
    {
      "constant": true,
      "inputs": [
        {
          "name": "_projectAddress",
          "type": "address"
        },
        {
          "name": "_address",
          "type": "address"
        }
      ],
      "name": "calculateWeightOfAddress",
      "outputs": [
        {
          "name": "",
          "type": "uint256"
        }
      ],
      "payable": false,
      "stateMutability": "view",
      "type": "function"
    },
    {
      "constant": true,
      "inputs": [
        {
          "name": "_projectAddress",
          "type": "address"
        }
      ],
      "name": "isStaked",
      "outputs": [
        {
          "name": "",
          "type": "bool"
        }
      ],
      "payable": false,
      "stateMutability": "view",
      "type": "function"
    },
    {
      "constant": false,
      "inputs": [
        {
          "name": "_projectAddress",
          "type": "address"
        }
      ],
      "name": "calculatePassAmount",
      "outputs": [
        {
          "name": "",
          "type": "uint256"
        }
      ],
      "payable": false,
      "stateMutability": "nonpayable",
      "type": "function"
    },
    {
      "constant": false,
      "inputs": [
        {
          "name": "_projectAddress",
          "type": "address"
        },
        {
          "name": "_staker",
          "type": "address"
        }
      ],
      "name": "refundStaker",
      "outputs": [
        {
          "name": "",
          "type": "uint256"
        }
      ],
      "payable": false,
      "stateMutability": "nonpayable",
      "type": "function"
    },
    {
      "constant": false,
      "inputs": [
        {
          "name": "_projectAddress",
          "type": "address"
        },
        {
          "name": "_staker",
          "type": "address"
        },
        {
          "name": "_index",
          "type": "uint256"
        },
        {
          "name": "_tokens",
          "type": "uint256"
        },
        {
          "name": "_validationState",
          "type": "bool"
        }
      ],
      "name": "validate",
      "outputs": [],
      "payable": false,
      "stateMutability": "nonpayable",
      "type": "function"
    },
    {
      "constant": false,
      "inputs": [
        {
          "name": "_tokenRegistry",
          "type": "address"
        },
        {
          "name": "_reputationRegistry",
          "type": "address"
        },
        {
          "name": "_projectAddress",
          "type": "address"
        }
      ],
      "name": "burnStake",
      "outputs": [],
      "payable": false,
      "stateMutability": "nonpayable",
      "type": "function"
    },
    {
      "constant": false,
      "inputs": [
        {
          "name": "_index",
          "type": "uint256"
        },
        {
          "name": "_projectAddress",
          "type": "address"
        },
        {
          "name": "_claimer",
          "type": "address"
        }
      ],
      "name": "claimTaskReward",
      "outputs": [
        {
          "name": "",
          "type": "uint256"
        }
      ],
      "payable": false,
      "stateMutability": "nonpayable",
      "type": "function"
    },
    {
      "constant": true,
      "inputs": [
        {
          "name": "_projectAddress",
          "type": "address"
        },
        {
          "name": "_staker",
          "type": "address"
        }
      ],
      "name": "isStaker",
      "outputs": [
        {
          "name": "",
          "type": "bool"
        }
      ],
      "payable": false,
      "stateMutability": "view",
      "type": "function"
    },
    {
      "constant": true,
      "inputs": [
        {
          "name": "_projectAddress",
          "type": "address"
        }
      ],
      "name": "timesUp",
      "outputs": [
        {
          "name": "",
          "type": "bool"
        }
      ],
      "payable": false,
      "stateMutability": "view",
      "type": "function"
    },
    {
      "anonymous": false,
      "inputs": [
        {
          "indexed": false,
          "name": "staker",
          "type": "address"
        },
        {
          "indexed": false,
          "name": "refund",
          "type": "uint256"
        }
      ],
      "name": "tokenRefund",
      "type": "event"
    },
    {
      "anonymous": false,
      "inputs": [
        {
          "indexed": false,
          "name": "projectAddress",
          "type": "address"
        },
        {
          "indexed": false,
          "name": "staker",
          "type": "address"
        },
        {
          "indexed": false,
          "name": "refund",
          "type": "uint256"
        }
      ],
      "name": "reputationRefund",
      "type": "event"
    }
  ],
  "bytecode": "0x6060604052341561000f57600080fd5b6123cb8061001e6000396000f300606060405260043610610099576000357c0100000000000000000000000000000000000000000000000000000000900463ffffffff16806343fa21d71461009e5780636177fd18146100ff57806392fd3fbc14610145578063a3ffcc4714610187578063b61caa79146101e8578063b6896e8614610252578063b7f36cda146102be578063f60b0d5c14610328578063f98592191461038d575b600080fd5b6100e9600480803573ffffffffffffffffffffffffffffffffffffffff1690602001909190803573ffffffffffffffffffffffffffffffffffffffff169060200190919050506103d3565b6040518082815260200191505060405180910390f35b61012b600480803573ffffffffffffffffffffffffffffffffffffffff169060200190919050506107d0565b604051808215151515815260200191505060405180910390f35b610171600480803573ffffffffffffffffffffffffffffffffffffffff16906020019091905050610a06565b6040518082815260200191505060405180910390f35b6101d2600480803573ffffffffffffffffffffffffffffffffffffffff1690602001909190803573ffffffffffffffffffffffffffffffffffffffff16906020019091905050610d80565b6040518082815260200191505060405180910390f35b610250600480803573ffffffffffffffffffffffffffffffffffffffff1690602001909190803573ffffffffffffffffffffffffffffffffffffffff16906020019091908035906020019091908035906020019091908035151590602001909190505061105c565b005b6102bc600480803573ffffffffffffffffffffffffffffffffffffffff1690602001909190803573ffffffffffffffffffffffffffffffffffffffff1690602001909190803573ffffffffffffffffffffffffffffffffffffffff16906020019091905050611342565b005b610312600480803590602001909190803573ffffffffffffffffffffffffffffffffffffffff1690602001909190803573ffffffffffffffffffffffffffffffffffffffff169060200190919050506115d4565b6040518082815260200191505060405180910390f35b610373600480803573ffffffffffffffffffffffffffffffffffffffff1690602001909190803573ffffffffffffffffffffffffffffffffffffffff16906020019091905050611aec565b604051808215151515815260200191505060405180910390f35b6103b9600480803573ffffffffffffffffffffffffffffffffffffffff16906020019091905050611c84565b604051808215151515815260200191505060405180910390f35b60008060008085905060008173ffffffffffffffffffffffffffffffffffffffff16633a50fb7c6000604051602001526040518163ffffffff167c0100000000000000000000000000000000000000000000000000000000028152600401602060405180830381600087803b151561044a57600080fd5b6102c65a03f1151561045b57600080fd5b5050506040518051905014156104755760009250826105c8565b6105c48173ffffffffffffffffffffffffffffffffffffffff16639b6856e6876000604051602001526040518263ffffffff167c0100000000000000000000000000000000000000000000000000000000028152600401808273ffffffffffffffffffffffffffffffffffffffff1673ffffffffffffffffffffffffffffffffffffffff168152602001915050602060405180830381600087803b151561051b57600080fd5b6102c65a03f1151561052c57600080fd5b505050604051805190508273ffffffffffffffffffffffffffffffffffffffff16633a50fb7c6000604051602001526040518163ffffffff167c0100000000000000000000000000000000000000000000000000000000028152600401602060405180830381600087803b15156105a257600080fd5b6102c65a03f115156105b357600080fd5b505050604051805190506002611d16565b9250825b5060008173ffffffffffffffffffffffffffffffffffffffff1663b0e31b2d6000604051602001526040518163ffffffff167c0100000000000000000000000000000000000000000000000000000000028152600401602060405180830381600087803b151561063757600080fd5b6102c65a03f1151561064857600080fd5b5050506040518051905014156106625760009150816107b5565b6107b18173ffffffffffffffffffffffffffffffffffffffff1663dca62c60876000604051602001526040518263ffffffff167c0100000000000000000000000000000000000000000000000000000000028152600401808273ffffffffffffffffffffffffffffffffffffffff1673ffffffffffffffffffffffffffffffffffffffff168152602001915050602060405180830381600087803b151561070857600080fd5b6102c65a03f1151561071957600080fd5b505050604051805190508273ffffffffffffffffffffffffffffffffffffffff1663b0e31b2d6000604051602001526040518163ffffffff167c0100000000000000000000000000000000000000000000000000000000028152600401602060405180830381600087803b151561078f57600080fd5b6102c65a03f115156107a057600080fd5b505050604051805190506002611d16565b9150815b5060028284018115156107c457fe5b04935050505092915050565b6000808290508073ffffffffffffffffffffffffffffffffffffffff1663065d5d0a6000604051602001526040518163ffffffff167c0100000000000000000000000000000000000000000000000000000000028152600401602060405180830381600087803b151561084257600080fd5b6102c65a03f1151561085357600080fd5b505050604051805190508173ffffffffffffffffffffffffffffffffffffffff166312ff35bc6000604051602001526040518163ffffffff167c0100000000000000000000000000000000000000000000000000000000028152600401602060405180830381600087803b15156108c957600080fd5b6102c65a03f115156108da57600080fd5b50505060405180519050111580156109fe57508073ffffffffffffffffffffffffffffffffffffffff16633a50fb7c6000604051602001526040518163ffffffff167c0100000000000000000000000000000000000000000000000000000000028152600401602060405180830381600087803b151561095957600080fd5b6102c65a03f1151561096a57600080fd5b505050604051805190508173ffffffffffffffffffffffffffffffffffffffff166336df7df76000604051602001526040518163ffffffff167c0100000000000000000000000000000000000000000000000000000000028152600401602060405180830381600087803b15156109e057600080fd5b6102c65a03f115156109f157600080fd5b5050506040518051905011155b915050919050565b600080600080600085935060058473ffffffffffffffffffffffffffffffffffffffff1663c19d93fb6000604051602001526040518163ffffffff167c0100000000000000000000000000000000000000000000000000000000028152600401602060405180830381600087803b1515610a7f57600080fd5b6102c65a03f11515610a9057600080fd5b50505060405180519050141515610aa657600080fd5b600091505b8373ffffffffffffffffffffffffffffffffffffffff1663c17a340e6000604051602001526040518163ffffffff167c0100000000000000000000000000000000000000000000000000000000028152600401602060405180830381600087803b1515610b1757600080fd5b6102c65a03f11515610b2857600080fd5b50505060405180519050821015610cf2578373ffffffffffffffffffffffffffffffffffffffff16638d977672836000604051602001526040518263ffffffff167c010000000000000000000000000000000000000000000000000000000002815260040180828152602001915050602060405180830381600087803b1515610bb057600080fd5b6102c65a03f11515610bc157600080fd5b5050506040518051905090508073ffffffffffffffffffffffffffffffffffffffff1663edb151a86000604051602001526040518163ffffffff167c0100000000000000000000000000000000000000000000000000000000028152600401602060405180830381600087803b1515610c3957600080fd5b6102c65a03f11515610c4a57600080fd5b5050506040518051905015610ce5578073ffffffffffffffffffffffffffffffffffffffff1663599b6d236000604051602001526040518163ffffffff167c0100000000000000000000000000000000000000000000000000000000028152600401602060405180830381600087803b1515610cc557600080fd5b6102c65a03f11515610cd657600080fd5b50505060405180519050830192505b8180600101925050610aab565b8373ffffffffffffffffffffffffffffffffffffffff16630df44ec5846040518263ffffffff167c010000000000000000000000000000000000000000000000000000000002815260040180828152602001915050600060405180830381600087803b1515610d6057600080fd5b6102c65a03f11515610d7157600080fd5b50505082945050505050919050565b60008083905060068173ffffffffffffffffffffffffffffffffffffffff1663c19d93fb6000604051602001526040518163ffffffff167c0100000000000000000000000000000000000000000000000000000000028152600401602060405180830381600087803b1515610df457600080fd5b6102c65a03f11515610e0557600080fd5b505050604051805190501480610ea1575060088173ffffffffffffffffffffffffffffffffffffffff1663c19d93fb6000604051602001526040518163ffffffff167c0100000000000000000000000000000000000000000000000000000000028152600401602060405180830381600087803b1515610e8457600080fd5b6102c65a03f11515610e9557600080fd5b50505060405180519050145b1515610eac57600080fd5b8073ffffffffffffffffffffffffffffffffffffffff1663b532b113336000604051602001526040518263ffffffff167c0100000000000000000000000000000000000000000000000000000000028152600401808273ffffffffffffffffffffffffffffffffffffffff1673ffffffffffffffffffffffffffffffffffffffff168152602001915050602060405180830381600087803b1515610f4f57600080fd5b6102c65a03f11515610f6057600080fd5b5050506040518051905015610f8057610f798484611d49565b9150611055565b8073ffffffffffffffffffffffffffffffffffffffff1663b5b29838336000604051602001526040518263ffffffff167c0100000000000000000000000000000000000000000000000000000000028152600401808273ffffffffffffffffffffffffffffffffffffffff1673ffffffffffffffffffffffffffffffffffffffff168152602001915050602060405180830381600087803b151561102357600080fd5b6102c65a03f1151561103457600080fd5b50505060405180519050156110545761104d848461205a565b9150611055565b5b5092915050565b60008086915060048273ffffffffffffffffffffffffffffffffffffffff1663c19d93fb6000604051602001526040518163ffffffff167c0100000000000000000000000000000000000000000000000000000000028152600401602060405180830381600087803b15156110d057600080fd5b6102c65a03f115156110e157600080fd5b505050604051805190501415156110f757600080fd5b8173ffffffffffffffffffffffffffffffffffffffff16638d977672866000604051602001526040518263ffffffff167c010000000000000000000000000000000000000000000000000000000002815260040180828152602001915050602060405180830381600087803b151561116e57600080fd5b6102c65a03f1151561117f57600080fd5b50505060405180519050905060008411151561119a57600080fd5b60011515831515141561126b578073ffffffffffffffffffffffffffffffffffffffff16638448a5a9876001876040518463ffffffff167c0100000000000000000000000000000000000000000000000000000000028152600401808473ffffffffffffffffffffffffffffffffffffffff1673ffffffffffffffffffffffffffffffffffffffff1681526020018381526020018281526020019350505050600060405180830381600087803b151561125257600080fd5b6102c65a03f1151561126357600080fd5b505050611339565b600015158315151415611338578073ffffffffffffffffffffffffffffffffffffffff16638448a5a9876000876040518463ffffffff167c0100000000000000000000000000000000000000000000000000000000028152600401808473ffffffffffffffffffffffffffffffffffffffff1673ffffffffffffffffffffffffffffffffffffffff1681526020018381526020018281526020019350505050600060405180830381600087803b151561132357600080fd5b6102c65a03f1151561133457600080fd5b5050505b5b50505050505050565b60008190508373ffffffffffffffffffffffffffffffffffffffff16636d1b229d8273ffffffffffffffffffffffffffffffffffffffff1663b0e31b2d6000604051602001526040518163ffffffff167c0100000000000000000000000000000000000000000000000000000000028152600401602060405180830381600087803b15156113cf57600080fd5b6102c65a03f115156113e057600080fd5b505050604051805190506040518263ffffffff167c010000000000000000000000000000000000000000000000000000000002815260040180828152602001915050600060405180830381600087803b151561143b57600080fd5b6102c65a03f1151561144c57600080fd5b5050508273ffffffffffffffffffffffffffffffffffffffff16639c6c34398273ffffffffffffffffffffffffffffffffffffffff16633a50fb7c6000604051602001526040518163ffffffff167c0100000000000000000000000000000000000000000000000000000000028152600401602060405180830381600087803b15156114d757600080fd5b6102c65a03f115156114e857600080fd5b505050604051805190506040518263ffffffff167c010000000000000000000000000000000000000000000000000000000002815260040180828152602001915050600060405180830381600087803b151561154357600080fd5b6102c65a03f1151561155457600080fd5b5050508073ffffffffffffffffffffffffffffffffffffffff1663476da5666040518163ffffffff167c0100000000000000000000000000000000000000000000000000000000028152600401600060405180830381600087803b15156115ba57600080fd5b6102c65a03f115156115cb57600080fd5b50505050505050565b600080600080600086935060068473ffffffffffffffffffffffffffffffffffffffff1663c19d93fb6000604051602001526040518163ffffffff167c0100000000000000000000000000000000000000000000000000000000028152600401602060405180830381600087803b151561164d57600080fd5b6102c65a03f1151561165e57600080fd5b5050506040518051905014151561167457600080fd5b8373ffffffffffffffffffffffffffffffffffffffff16638d977672896000604051602001526040518263ffffffff167c010000000000000000000000000000000000000000000000000000000002815260040180828152602001915050602060405180830381600087803b15156116eb57600080fd5b6102c65a03f115156116fc57600080fd5b5050506040518051905092508573ffffffffffffffffffffffffffffffffffffffff168373ffffffffffffffffffffffffffffffffffffffff1663d379be236000604051602001526040518163ffffffff167c0100000000000000000000000000000000000000000000000000000000028152600401602060405180830381600087803b151561178b57600080fd5b6102c65a03f1151561179c57600080fd5b5050506040518051905073ffffffffffffffffffffffffffffffffffffffff1614801561184c57508273ffffffffffffffffffffffffffffffffffffffff1663edb151a86000604051602001526040518163ffffffff167c0100000000000000000000000000000000000000000000000000000000028152600401602060405180830381600087803b151561183057600080fd5b6102c65a03f1151561184157600080fd5b505050604051805190505b151561185757600080fd5b8273ffffffffffffffffffffffffffffffffffffffff16637b5668606000604051602001526040518163ffffffff167c0100000000000000000000000000000000000000000000000000000000028152600401602060405180830381600087803b15156118c357600080fd5b6102c65a03f115156118d457600080fd5b5050506040518051905091508273ffffffffffffffffffffffffffffffffffffffff1663ed1ff6d86000604051602001526040518163ffffffff167c0100000000000000000000000000000000000000000000000000000000028152600401602060405180830381600087803b151561194c57600080fd5b6102c65a03f1151561195d57600080fd5b5050506040518051905090508273ffffffffffffffffffffffffffffffffffffffff166373cc18da600080896040518463ffffffff167c0100000000000000000000000000000000000000000000000000000000028152600401808481526020018381526020018273ffffffffffffffffffffffffffffffffffffffff1673ffffffffffffffffffffffffffffffffffffffff1681526020019350505050600060405180830381600087803b1515611a1457600080fd5b6102c65a03f11515611a2557600080fd5b5050508373ffffffffffffffffffffffffffffffffffffffff1663b10bbaab87846040518363ffffffff167c0100000000000000000000000000000000000000000000000000000000028152600401808373ffffffffffffffffffffffffffffffffffffffff1673ffffffffffffffffffffffffffffffffffffffff16815260200182815260200192505050600060405180830381600087803b1515611aca57600080fd5b6102c65a03f11515611adb57600080fd5b505050809450505050509392505050565b60008083905060008173ffffffffffffffffffffffffffffffffffffffff1663dca62c60856000604051602001526040518263ffffffff167c0100000000000000000000000000000000000000000000000000000000028152600401808273ffffffffffffffffffffffffffffffffffffffff1673ffffffffffffffffffffffffffffffffffffffff168152602001915050602060405180830381600087803b1515611b9757600080fd5b6102c65a03f11515611ba857600080fd5b505050604051805190501180611c7b575060008173ffffffffffffffffffffffffffffffffffffffff16639b6856e6856000604051602001526040518263ffffffff167c0100000000000000000000000000000000000000000000000000000000028152600401808273ffffffffffffffffffffffffffffffffffffffff1673ffffffffffffffffffffffffffffffffffffffff168152602001915050602060405180830381600087803b1515611c5e57600080fd5b6102c65a03f11515611c6f57600080fd5b50505060405180519050115b91505092915050565b60008173ffffffffffffffffffffffffffffffffffffffff1663205179846000604051602001526040518163ffffffff167c0100000000000000000000000000000000000000000000000000000000028152600401602060405180830381600087803b1515611cf257600080fd5b6102c65a03f11515611d0357600080fd5b5050506040518051905042119050919050565b60008060018301600a0a85029050600a60058583811515611d3357fe5b0401811515611d3e57fe5b049150509392505050565b600080600084905060008173ffffffffffffffffffffffffffffffffffffffff1663b0e31b2d6000604051602001526040518163ffffffff167c0100000000000000000000000000000000000000000000000000000000028152600401602060405180830381600087803b1515611dbf57600080fd5b6102c65a03f11515611dd057600080fd5b50505060405180519050141515611fe45760648173ffffffffffffffffffffffffffffffffffffffff16634b3a9a2c6000604051602001526040518163ffffffff167c0100000000000000000000000000000000000000000000000000000000028152600401602060405180830381600087803b1515611e4f57600080fd5b6102c65a03f11515611e6057600080fd5b505050604051805190508273ffffffffffffffffffffffffffffffffffffffff1663dca62c60876000604051602001526040518263ffffffff167c0100000000000000000000000000000000000000000000000000000000028152600401808273ffffffffffffffffffffffffffffffffffffffff1673ffffffffffffffffffffffffffffffffffffffff168152602001915050602060405180830381600087803b1515611f0d57600080fd5b6102c65a03f11515611f1e57600080fd5b5050506040518051905002811515611f3257fe5b0491508073ffffffffffffffffffffffffffffffffffffffff166306a5ab2c856040518263ffffffff167c0100000000000000000000000000000000000000000000000000000000028152600401808273ffffffffffffffffffffffffffffffffffffffff1673ffffffffffffffffffffffffffffffffffffffff168152602001915050600060405180830381600087803b1515611fcf57600080fd5b6102c65a03f11515611fe057600080fd5b5050505b7f911db51ed2e298250d30776745397b1001763f5bf87e73dddcf540c7142989528483604051808373ffffffffffffffffffffffffffffffffffffffff1673ffffffffffffffffffffffffffffffffffffffff1681526020018281526020019250505060405180910390a1819250505092915050565b600080600084905060008173ffffffffffffffffffffffffffffffffffffffff16633a50fb7c6000604051602001526040518163ffffffff167c0100000000000000000000000000000000000000000000000000000000028152600401602060405180830381600087803b15156120d057600080fd5b6102c65a03f115156120e157600080fd5b505050604051805190501415156122f55760648173ffffffffffffffffffffffffffffffffffffffff16634b3a9a2c6000604051602001526040518163ffffffff167c0100000000000000000000000000000000000000000000000000000000028152600401602060405180830381600087803b151561216057600080fd5b6102c65a03f1151561217157600080fd5b505050604051805190508273ffffffffffffffffffffffffffffffffffffffff16639b6856e6876000604051602001526040518263ffffffff167c0100000000000000000000000000000000000000000000000000000000028152600401808273ffffffffffffffffffffffffffffffffffffffff1673ffffffffffffffffffffffffffffffffffffffff168152602001915050602060405180830381600087803b151561221e57600080fd5b6102c65a03f1151561222f57600080fd5b505050604051805190500281151561224357fe5b0491508073ffffffffffffffffffffffffffffffffffffffff1663764c8a00856040518263ffffffff167c0100000000000000000000000000000000000000000000000000000000028152600401808273ffffffffffffffffffffffffffffffffffffffff1673ffffffffffffffffffffffffffffffffffffffff168152602001915050600060405180830381600087803b15156122e057600080fd5b6102c65a03f115156122f157600080fd5b5050505b7f900315df34b75ad2268d27c7d161ac82e1961ced587aa93250f695ce214bc685858584604051808473ffffffffffffffffffffffffffffffffffffffff1673ffffffffffffffffffffffffffffffffffffffff1681526020018373ffffffffffffffffffffffffffffffffffffffff1673ffffffffffffffffffffffffffffffffffffffff168152602001828152602001935050505060405180910390a18192505050929150505600a165627a7a7230582086e48923b88f5969ed7e74da721e6c8bf9a0a98dd784bfd4f141e5a6ef06a84a0029",
  "source": "pragma solidity ^0.4.8;\n\nimport \"./Project.sol\";\nimport \"./TokenRegistry.sol\";\nimport \"./ReputationRegistry.sol\";\nimport \"./ProjectRegistry.sol\";\nimport \"./Task.sol\";\n\nlibrary ProjectLibrary {\n\n// =====================================================================\n// EVENTS\n// =====================================================================\n\n  event tokenRefund(address staker, uint256 refund);\n  event reputationRefund(address projectAddress, address staker, uint256 refund);\n\n// =====================================================================\n// FUNCTIONS\n// =====================================================================\n\n  // =====================================================================\n  // UTILITY\n  // =====================================================================\n\n    function isStaker(address _projectAddress, address _staker) public view returns(bool) {\n      Project project = Project(_projectAddress);\n      return project.stakedTokenBalances(_staker) > 0 || project.stakedReputationBalances(_staker) > 0;\n    }\n\n    function isStaked(address _projectAddress) public view returns (bool) {\n      Project project = Project(_projectAddress);\n      return project.weiCost() <= project.weiBal() && project.reputationCost() <= project.totalReputationStaked();\n    }\n\n    function timesUp(address _projectAddress) public view returns (bool) {\n      return (now > Project(_projectAddress).nextDeadline());\n    }\n\n    function percent(uint256 numerator, uint256 denominator, uint256 precision) internal pure returns (uint256) {\n       // caution, check safe-to-multiply here\n      uint256 _numerator  = numerator * 10 ** (precision+1);\n      // with rounding of last digit\n      return ((_numerator / denominator) + 5) / 10;\n    }\n\n    function calculateWeightOfAddress(address _projectAddress, address _address) public view returns (uint256) {\n      uint256 reputationWeight;\n      uint256 tokenWeight;\n      Project project = Project(_projectAddress);\n      project.totalReputationStaked() != 0\n        ? reputationWeight = percent(project.stakedReputationBalances(_address), project.totalReputationStaked(), 2)\n        : reputationWeight = 0;\n      project.totalTokensStaked() != 0\n        ? tokenWeight = percent(project.stakedTokenBalances(_address), project.totalTokensStaked(), 2)\n        : tokenWeight = 0;\n      return (reputationWeight + tokenWeight) / 2;\n    }\n\n  // =====================================================================\n  // VALIDATION\n  // =====================================================================\n\n    function validate(address _projectAddress, address _staker, uint256 _index, uint256 _tokens, bool _validationState) public {\n      Project project = Project(_projectAddress);\n      require(project.state() == 4);\n      Task task = Task(project.tasks(_index));\n      require(_tokens > 0);\n      if (_validationState == true) {\n        task.setValidator(_staker, 1, _tokens);\n      }\n      else if (_validationState == false){\n        task.setValidator(_staker, 0, _tokens);\n      }\n    }\n\n    function calculatePassAmount(address _projectAddress) public returns (uint){\n      Project project = Project(_projectAddress);\n      uint totalWeighting;\n      require(project.state() == 5);\n      for (uint i = 0; i < project.getTaskCount(); i++) {\n        Task task = Task(project.tasks(i));\n        if (task.claimableByRep()) {\n          totalWeighting += task.weighting();\n        }\n      }\n      project.setPassAmount(totalWeighting);\n      return totalWeighting;\n    }\n\n  // =====================================================================\n  // TASK\n  // =====================================================================\n\n    function claimTaskReward(uint256 _index, address _projectAddress, address _claimer) public returns (uint256) {\n      Project project = Project(_projectAddress);\n      require(project.state() == 6);\n      Task task = Task(project.tasks(_index));\n      require(task.claimer() == _claimer && task.claimableByRep());\n      uint256 weiReward = task.weiReward();\n      uint256 reputationReward = task.reputationReward();\n      task.setTaskReward(0, 0, _claimer);\n      project.transferWeiReward(_claimer, weiReward);\n      return reputationReward;\n    }\n\n  // =====================================================================\n  // COMPLETE\n  // =====================================================================\n\n    function refundStaker(address _projectAddress, address _staker) public returns (uint256) {\n      Project project = Project(_projectAddress);\n      require(project.state() == 6 || project.state() == 8);\n      if (project.isTR(msg.sender)) {\n        return handleTokenStaker(_projectAddress, _staker);\n      } else if (project.isRR(msg.sender)) {\n        return handleReputationStaker(_projectAddress, _staker);\n      }\n    }\n\n    function handleTokenStaker(address _projectAddress, address _staker) internal returns (uint256) {\n      uint256 refund;\n      // account for proportion of successful tasks\n      Project project = Project(_projectAddress);\n      if(project.totalTokensStaked() != 0) {\n        refund = project.stakedTokenBalances(_staker) * project.passThreshold() / 100;\n        project.clearTokenStake(_staker);\n      }\n      tokenRefund(_staker, refund);\n      return refund;\n    }\n\n    function handleReputationStaker(address _projectAddress, address _staker) internal returns (uint256 _refund) {\n      uint256 refund;\n      Project project = Project(_projectAddress);\n      if(project.totalReputationStaked() != 0) {\n        refund = project.stakedReputationBalances(_staker) * project.passThreshold() / 100;\n        project.clearReputationStake(_staker);\n      }\n      reputationRefund(_projectAddress, _staker, refund);\n      return refund;\n    }\n\n  // =====================================================================\n  // FAILED\n  // =====================================================================\n\n    function burnStake(address _tokenRegistry, address _reputationRegistry, address _projectAddress) public {\n      Project project = Project(_projectAddress);\n      TokenRegistry(_tokenRegistry).burnTokens(project.totalTokensStaked());\n      ReputationRegistry(_reputationRegistry).burnReputation(project.totalReputationStaked());\n      project.clearStake();\n    }\n}\n",
  "sourcePath": "/Users/shokishoki/development/consensys/distribute/contracts/contracts/ProjectLibrary.sol",
  "compiler": {
    "name": "solc",
    "version": "0.4.18+commit.9cf6e910.Emscripten.clang"
  },
  "schemaVersion": "1.0.1",
  "updatedAt": "2018-03-04T05:40:31.874Z"
}