{
  "contractName": "ProjectLibrary",
  "abi": [
    {
      "constant": false,
      "inputs": [
        {
          "name": "_projectAddress",
          "type": "address"
        },
        {
          "name": "_staker",
          "type": "address"
        },
        {
          "name": "_tokens",
          "type": "uint256"
        },
        {
          "name": "_validationState",
          "type": "bool"
        }
      ],
      "name": "validate",
      "outputs": [],
      "payable": false,
      "stateMutability": "nonpayable",
      "type": "function"
    },
    {
      "constant": false,
      "inputs": [
        {
          "name": "_tokenRegistry",
          "type": "address"
        },
        {
          "name": "_projectAddress",
          "type": "address"
        },
        {
          "name": "_taskHash",
          "type": "bytes32"
        },
        {
          "name": "_claimer",
          "type": "address"
        }
      ],
      "name": "claimTaskReward",
      "outputs": [
        {
          "name": "",
          "type": "uint256"
        }
      ],
      "payable": false,
      "stateMutability": "nonpayable",
      "type": "function"
    },
    {
      "constant": true,
      "inputs": [
        {
          "name": "_projectAddress",
          "type": "address"
        },
        {
          "name": "_address",
          "type": "address"
        }
      ],
      "name": "calculateWeightOfAddress",
      "outputs": [
        {
          "name": "",
          "type": "uint256"
        }
      ],
      "payable": false,
      "stateMutability": "view",
      "type": "function"
    },
    {
      "constant": false,
      "inputs": [
        {
          "name": "_tokenRegistry",
          "type": "address"
        },
        {
          "name": "_reputationRegistry",
          "type": "address"
        },
        {
          "name": "_projectAddress",
          "type": "address"
        },
        {
          "name": "isPassed",
          "type": "bool"
        }
      ],
      "name": "setValidationState",
      "outputs": [],
      "payable": false,
      "stateMutability": "nonpayable",
      "type": "function"
    },
    {
      "constant": true,
      "inputs": [
        {
          "name": "_projectAddress",
          "type": "address"
        }
      ],
      "name": "isStaked",
      "outputs": [
        {
          "name": "",
          "type": "bool"
        }
      ],
      "payable": false,
      "stateMutability": "view",
      "type": "function"
    },
    {
      "constant": false,
      "inputs": [
        {
          "name": "_projectAddress",
          "type": "address"
        },
        {
          "name": "_taskHash",
          "type": "bytes32"
        },
        {
          "name": "_weiVal",
          "type": "uint256"
        },
        {
          "name": "_reputationVal",
          "type": "uint256"
        },
        {
          "name": "_claimer",
          "type": "address"
        }
      ],
      "name": "claimTask",
      "outputs": [],
      "payable": false,
      "stateMutability": "nonpayable",
      "type": "function"
    },
    {
      "constant": false,
      "inputs": [
        {
          "name": "_projectAddress",
          "type": "address"
        },
        {
          "name": "_staker",
          "type": "address"
        }
      ],
      "name": "refundStaker",
      "outputs": [
        {
          "name": "_refund",
          "type": "uint256"
        }
      ],
      "payable": false,
      "stateMutability": "nonpayable",
      "type": "function"
    },
    {
      "constant": true,
      "inputs": [
        {
          "name": "_projectAddress",
          "type": "address"
        },
        {
          "name": "_staker",
          "type": "address"
        }
      ],
      "name": "isStaker",
      "outputs": [
        {
          "name": "",
          "type": "bool"
        }
      ],
      "payable": false,
      "stateMutability": "view",
      "type": "function"
    },
    {
      "constant": true,
      "inputs": [
        {
          "name": "_projectAddress",
          "type": "address"
        }
      ],
      "name": "timesUp",
      "outputs": [
        {
          "name": "",
          "type": "bool"
        }
      ],
      "payable": false,
      "stateMutability": "view",
      "type": "function"
    },
    {
      "anonymous": false,
      "inputs": [
        {
          "indexed": false,
          "name": "staker",
          "type": "address"
        },
        {
          "indexed": false,
          "name": "refund",
          "type": "uint256"
        }
      ],
      "name": "tokenRefund",
      "type": "event"
    },
    {
      "anonymous": false,
      "inputs": [
        {
          "indexed": false,
          "name": "projectAddress",
          "type": "address"
        },
        {
          "indexed": false,
          "name": "staker",
          "type": "address"
        },
        {
          "indexed": false,
          "name": "refund",
          "type": "uint256"
        }
      ],
      "name": "reputationRefund",
      "type": "event"
    }
  ],
  "bytecode": "0x6060604052341561000f57600080fd5b6128ff8061001e6000396000f300606060405260043610610099576000357c0100000000000000000000000000000000000000000000000000000000900463ffffffff1680631e00d38c1461009e57806326a2c756146100ff57806343fa21d71461018c5780634567dfa0146101ed5780636177fd181461026457806389fc9b8a146102aa578063a3ffcc4714610316578063f60b0d5c14610377578063f9859219146103dc575b600080fd5b6100fd600480803573ffffffffffffffffffffffffffffffffffffffff1690602001909190803573ffffffffffffffffffffffffffffffffffffffff169060200190919080359060200190919080351515906020019091905050610422565b005b610176600480803573ffffffffffffffffffffffffffffffffffffffff1690602001909190803573ffffffffffffffffffffffffffffffffffffffff169060200190919080356000191690602001909190803573ffffffffffffffffffffffffffffffffffffffff16906020019091905050610791565b6040518082815260200191505060405180910390f35b6101d7600480803573ffffffffffffffffffffffffffffffffffffffff1690602001909190803573ffffffffffffffffffffffffffffffffffffffff16906020019091905050610aa0565b6040518082815260200191505060405180910390f35b610262600480803573ffffffffffffffffffffffffffffffffffffffff1690602001909190803573ffffffffffffffffffffffffffffffffffffffff1690602001909190803573ffffffffffffffffffffffffffffffffffffffff169060200190919080351515906020019091905050610e9d565b005b610290600480803573ffffffffffffffffffffffffffffffffffffffff169060200190919050506110cd565b604051808215151515815260200191505060405180910390f35b610314600480803573ffffffffffffffffffffffffffffffffffffffff169060200190919080356000191690602001909190803590602001909190803590602001909190803573ffffffffffffffffffffffffffffffffffffffff16906020019091905050611303565b005b610361600480803573ffffffffffffffffffffffffffffffffffffffff1690602001909190803573ffffffffffffffffffffffffffffffffffffffff1690602001909190505061154e565b6040518082815260200191505060405180910390f35b6103c2600480803573ffffffffffffffffffffffffffffffffffffffff1690602001909190803573ffffffffffffffffffffffffffffffffffffffff1690602001909190505061179a565b604051808215151515815260200191505060405180910390f35b610408600480803573ffffffffffffffffffffffffffffffffffffffff16906020019091905050611932565b604051808215151515815260200191505060405180910390f35b60008460046000829050818173ffffffffffffffffffffffffffffffffffffffff1663c19d93fb6000604051602001526040518163ffffffff167c0100000000000000000000000000000000000000000000000000000000028152600401602060405180830381600087803b151561049957600080fd5b6102c65a03f115156104aa57600080fd5b505050604051805190501415156104c057600080fd5b8793506000861115156104d257600080fd5b60011515851515141561062e578373ffffffffffffffffffffffffffffffffffffffff16638448a5a9886001896040518463ffffffff167c0100000000000000000000000000000000000000000000000000000000028152600401808473ffffffffffffffffffffffffffffffffffffffff1673ffffffffffffffffffffffffffffffffffffffff1681526020018381526020018281526020019350505050600060405180830381600087803b151561058a57600080fd5b6102c65a03f1151561059b57600080fd5b5050508373ffffffffffffffffffffffffffffffffffffffff1663de038b046001886040518363ffffffff167c01000000000000000000000000000000000000000000000000000000000281526004018083815260200182815260200192505050600060405180830381600087803b151561061557600080fd5b6102c65a03f1151561062657600080fd5b505050610787565b600015158515151415610786578373ffffffffffffffffffffffffffffffffffffffff16638448a5a9886000896040518463ffffffff167c0100000000000000000000000000000000000000000000000000000000028152600401808473ffffffffffffffffffffffffffffffffffffffff1673ffffffffffffffffffffffffffffffffffffffff1681526020018381526020018281526020019350505050600060405180830381600087803b15156106e657600080fd5b6102c65a03f115156106f757600080fd5b5050508373ffffffffffffffffffffffffffffffffffffffff1663de038b046000886040518363ffffffff167c01000000000000000000000000000000000000000000000000000000000281526004018083815260200182815260200192505050600060405180830381600087803b151561077157600080fd5b6102c65a03f1151561078257600080fd5b5050505b5b5050505050505050565b60008060008060008760066000829050818173ffffffffffffffffffffffffffffffffffffffff1663c19d93fb6000604051602001526040518163ffffffff167c0100000000000000000000000000000000000000000000000000000000028152600401602060405180830381600087803b151561080e57600080fd5b6102c65a03f1151561081f57600080fd5b5050506040518051905014151561083557600080fd5b8a96508673ffffffffffffffffffffffffffffffffffffffff16633d2304518b6000604051606001526040518263ffffffff167c0100000000000000000000000000000000000000000000000000000000028152600401808260001916600019168152602001915050606060405180830381600087803b15156108b757600080fd5b6102c65a03f115156108c857600080fd5b505050604051805190602001805190602001805190509550955095508873ffffffffffffffffffffffffffffffffffffffff168473ffffffffffffffffffffffffffffffffffffffff1614151561091e57600080fd5b8673ffffffffffffffffffffffffffffffffffffffff166365c5c9f98b60008060006040518563ffffffff167c01000000000000000000000000000000000000000000000000000000000281526004018085600019166000191681526020018481526020018381526020018273ffffffffffffffffffffffffffffffffffffffff168152602001945050505050600060405180830381600087803b15156109c457600080fd5b6102c65a03f115156109d557600080fd5b5050508b73ffffffffffffffffffffffffffffffffffffffff1663b10bbaab8a886040518363ffffffff167c0100000000000000000000000000000000000000000000000000000000028152600401808373ffffffffffffffffffffffffffffffffffffffff1673ffffffffffffffffffffffffffffffffffffffff16815260200182815260200192505050600060405180830381600087803b1515610a7a57600080fd5b6102c65a03f11515610a8b57600080fd5b50505084975050505050505050949350505050565b60008060008085905060008173ffffffffffffffffffffffffffffffffffffffff16633a50fb7c6000604051602001526040518163ffffffff167c0100000000000000000000000000000000000000000000000000000000028152600401602060405180830381600087803b1515610b1757600080fd5b6102c65a03f11515610b2857600080fd5b505050604051805190501415610b42576000925082610c95565b610c918173ffffffffffffffffffffffffffffffffffffffff16639b6856e6876000604051602001526040518263ffffffff167c0100000000000000000000000000000000000000000000000000000000028152600401808273ffffffffffffffffffffffffffffffffffffffff1673ffffffffffffffffffffffffffffffffffffffff168152602001915050602060405180830381600087803b1515610be857600080fd5b6102c65a03f11515610bf957600080fd5b505050604051805190508273ffffffffffffffffffffffffffffffffffffffff16633a50fb7c6000604051602001526040518163ffffffff167c0100000000000000000000000000000000000000000000000000000000028152600401602060405180830381600087803b1515610c6f57600080fd5b6102c65a03f11515610c8057600080fd5b5050506040518051905060026119c4565b9250825b5060008173ffffffffffffffffffffffffffffffffffffffff1663b0e31b2d6000604051602001526040518163ffffffff167c0100000000000000000000000000000000000000000000000000000000028152600401602060405180830381600087803b1515610d0457600080fd5b6102c65a03f11515610d1557600080fd5b505050604051805190501415610d2f576000915081610e82565b610e7e8173ffffffffffffffffffffffffffffffffffffffff1663dca62c60876000604051602001526040518263ffffffff167c0100000000000000000000000000000000000000000000000000000000028152600401808273ffffffffffffffffffffffffffffffffffffffff1673ffffffffffffffffffffffffffffffffffffffff168152602001915050602060405180830381600087803b1515610dd557600080fd5b6102c65a03f11515610de657600080fd5b505050604051805190508273ffffffffffffffffffffffffffffffffffffffff1663b0e31b2d6000604051602001526040518163ffffffff167c0100000000000000000000000000000000000000000000000000000000028152600401602060405180830381600087803b1515610e5c57600080fd5b6102c65a03f11515610e6d57600080fd5b5050506040518051905060026119c4565b9150815b506002828401811515610e9157fe5b04935050505092915050565b60008290508115610f30578073ffffffffffffffffffffffffffffffffffffffff1663b6dfbd9160006040518263ffffffff167c010000000000000000000000000000000000000000000000000000000002815260040180828152602001915050600060405180830381600087803b1515610f1757600080fd5b6102c65a03f11515610f2857600080fd5b505050610fbf565b610f3b8585856119f7565b8073ffffffffffffffffffffffffffffffffffffffff1663b6dfbd9160016040518263ffffffff167c010000000000000000000000000000000000000000000000000000000002815260040180828152602001915050600060405180830381600087803b1515610faa57600080fd5b6102c65a03f11515610fbb57600080fd5b5050505b60008173ffffffffffffffffffffffffffffffffffffffff1663fb92bdd86000604051602001526040518163ffffffff167c0100000000000000000000000000000000000000000000000000000000028152600401602060405180830381600087803b151561102d57600080fd5b6102c65a03f1151561103e57600080fd5b5050506040518051905014156110c6578073ffffffffffffffffffffffffffffffffffffffff1663a5dc0c426040518163ffffffff167c0100000000000000000000000000000000000000000000000000000000028152600401600060405180830381600087803b15156110b157600080fd5b6102c65a03f115156110c257600080fd5b5050505b5050505050565b6000808290508073ffffffffffffffffffffffffffffffffffffffff1663065d5d0a6000604051602001526040518163ffffffff167c0100000000000000000000000000000000000000000000000000000000028152600401602060405180830381600087803b151561113f57600080fd5b6102c65a03f1151561115057600080fd5b505050604051805190508173ffffffffffffffffffffffffffffffffffffffff166312ff35bc6000604051602001526040518163ffffffff167c0100000000000000000000000000000000000000000000000000000000028152600401602060405180830381600087803b15156111c657600080fd5b6102c65a03f115156111d757600080fd5b50505060405180519050111580156112fb57508073ffffffffffffffffffffffffffffffffffffffff16633a50fb7c6000604051602001526040518163ffffffff167c0100000000000000000000000000000000000000000000000000000000028152600401602060405180830381600087803b151561125657600080fd5b6102c65a03f1151561126757600080fd5b505050604051805190508173ffffffffffffffffffffffffffffffffffffffff166336df7df76000604051602001526040518163ffffffff167c0100000000000000000000000000000000000000000000000000000000028152600401602060405180830381600087803b15156112dd57600080fd5b6102c65a03f115156112ee57600080fd5b5050506040518051905011155b915050919050565b6000808660036000829050818173ffffffffffffffffffffffffffffffffffffffff1663c19d93fb6000604051602001526040518163ffffffff167c0100000000000000000000000000000000000000000000000000000000028152600401602060405180830381600087803b151561137b57600080fd5b6102c65a03f1151561138c57600080fd5b505050604051805190501415156113a257600080fd5b8994508473ffffffffffffffffffffffffffffffffffffffff16633d2304518a6000604051606001526040518263ffffffff167c0100000000000000000000000000000000000000000000000000000000028152600401808260001916600019168152602001915050606060405180830381600087803b151561142457600080fd5b6102c65a03f1151561143557600080fd5b505050604051805190602001805190602001805190509550505060008473ffffffffffffffffffffffffffffffffffffffff1614151561147457600080fd5b8473ffffffffffffffffffffffffffffffffffffffff166365c5c9f98a8a8a8a6040518563ffffffff167c01000000000000000000000000000000000000000000000000000000000281526004018085600019166000191681526020018481526020018381526020018273ffffffffffffffffffffffffffffffffffffffff1673ffffffffffffffffffffffffffffffffffffffff168152602001945050505050600060405180830381600087803b151561152e57600080fd5b6102c65a03f1151561153f57600080fd5b50505050505050505050505050565b60008083905060068173ffffffffffffffffffffffffffffffffffffffff1663c19d93fb6000604051602001526040518163ffffffff167c0100000000000000000000000000000000000000000000000000000000028152600401602060405180830381600087803b15156115c257600080fd5b6102c65a03f115156115d357600080fd5b505050604051805190501415156115e957600080fd5b8073ffffffffffffffffffffffffffffffffffffffff1663b532b113336000604051602001526040518263ffffffff167c0100000000000000000000000000000000000000000000000000000000028152600401808273ffffffffffffffffffffffffffffffffffffffff1673ffffffffffffffffffffffffffffffffffffffff168152602001915050602060405180830381600087803b151561168c57600080fd5b6102c65a03f1151561169d57600080fd5b50505060405180519050156116be576116b7338585611c89565b9150611793565b8073ffffffffffffffffffffffffffffffffffffffff1663b5b29838336000604051602001526040518263ffffffff167c0100000000000000000000000000000000000000000000000000000000028152600401808273ffffffffffffffffffffffffffffffffffffffff1673ffffffffffffffffffffffffffffffffffffffff168152602001915050602060405180830381600087803b151561176157600080fd5b6102c65a03f1151561177257600080fd5b50505060405180519050156117925761178b8484611f16565b9150611793565b5b5092915050565b60008083905060008173ffffffffffffffffffffffffffffffffffffffff1663dca62c60856000604051602001526040518263ffffffff167c0100000000000000000000000000000000000000000000000000000000028152600401808273ffffffffffffffffffffffffffffffffffffffff1673ffffffffffffffffffffffffffffffffffffffff168152602001915050602060405180830381600087803b151561184557600080fd5b6102c65a03f1151561185657600080fd5b505050604051805190501180611929575060008173ffffffffffffffffffffffffffffffffffffffff16639b6856e6856000604051602001526040518263ffffffff167c0100000000000000000000000000000000000000000000000000000000028152600401808273ffffffffffffffffffffffffffffffffffffffff1673ffffffffffffffffffffffffffffffffffffffff168152602001915050602060405180830381600087803b151561190c57600080fd5b6102c65a03f1151561191d57600080fd5b50505060405180519050115b91505092915050565b60008173ffffffffffffffffffffffffffffffffffffffff1663205179846000604051602001526040518163ffffffff167c0100000000000000000000000000000000000000000000000000000000028152600401602060405180830381600087803b15156119a057600080fd5b6102c65a03f115156119b157600080fd5b5050506040518051905042119050919050565b60008060018301600a0a85029050600a600585838115156119e157fe5b04018115156119ec57fe5b049150509392505050565b60008190508373ffffffffffffffffffffffffffffffffffffffff16636d1b229d8273ffffffffffffffffffffffffffffffffffffffff1663b0e31b2d6000604051602001526040518163ffffffff167c0100000000000000000000000000000000000000000000000000000000028152600401602060405180830381600087803b1515611a8457600080fd5b6102c65a03f11515611a9557600080fd5b505050604051805190506040518263ffffffff167c010000000000000000000000000000000000000000000000000000000002815260040180828152602001915050600060405180830381600087803b1515611af057600080fd5b6102c65a03f11515611b0157600080fd5b5050508273ffffffffffffffffffffffffffffffffffffffff16639c6c34398273ffffffffffffffffffffffffffffffffffffffff16633a50fb7c6000604051602001526040518163ffffffff167c0100000000000000000000000000000000000000000000000000000000028152600401602060405180830381600087803b1515611b8c57600080fd5b6102c65a03f11515611b9d57600080fd5b505050604051805190506040518263ffffffff167c010000000000000000000000000000000000000000000000000000000002815260040180828152602001915050600060405180830381600087803b1515611bf857600080fd5b6102c65a03f11515611c0957600080fd5b5050508073ffffffffffffffffffffffffffffffffffffffff1663476da5666040518163ffffffff167c0100000000000000000000000000000000000000000000000000000000028152600401600060405180830381600087803b1515611c6f57600080fd5b6102c65a03f11515611c8057600080fd5b50505050505050565b600080600084905060008173ffffffffffffffffffffffffffffffffffffffff1663b0e31b2d6000604051602001526040518163ffffffff167c0100000000000000000000000000000000000000000000000000000000028152600401602060405180830381600087803b1515611cff57600080fd5b6102c65a03f11515611d1057600080fd5b50505060405180519050141515611e90578073ffffffffffffffffffffffffffffffffffffffff1663dca62c60856000604051602001526040518263ffffffff167c0100000000000000000000000000000000000000000000000000000000028152600401808273ffffffffffffffffffffffffffffffffffffffff1673ffffffffffffffffffffffffffffffffffffffff168152602001915050602060405180830381600087803b1515611dc457600080fd5b6102c65a03f11515611dd557600080fd5b5050506040518051905091508073ffffffffffffffffffffffffffffffffffffffff166306a5ab2c856040518263ffffffff167c0100000000000000000000000000000000000000000000000000000000028152600401808273ffffffffffffffffffffffffffffffffffffffff1673ffffffffffffffffffffffffffffffffffffffff168152602001915050600060405180830381600087803b1515611e7b57600080fd5b6102c65a03f11515611e8c57600080fd5b5050505b611e9b8686866121c7565b820191507f911db51ed2e298250d30776745397b1001763f5bf87e73dddcf540c7142989528483604051808373ffffffffffffffffffffffffffffffffffffffff1673ffffffffffffffffffffffffffffffffffffffff1681526020018281526020019250505060405180910390a181925050509392505050565b600080600084905060008173ffffffffffffffffffffffffffffffffffffffff16633a50fb7c6000604051602001526040518163ffffffff167c0100000000000000000000000000000000000000000000000000000000028152600401602060405180830381600087803b1515611f8c57600080fd5b6102c65a03f11515611f9d57600080fd5b5050506040518051905014151561211d578073ffffffffffffffffffffffffffffffffffffffff16639b6856e6856000604051602001526040518263ffffffff167c0100000000000000000000000000000000000000000000000000000000028152600401808273ffffffffffffffffffffffffffffffffffffffff1673ffffffffffffffffffffffffffffffffffffffff168152602001915050602060405180830381600087803b151561205157600080fd5b6102c65a03f1151561206257600080fd5b5050506040518051905091508073ffffffffffffffffffffffffffffffffffffffff1663764c8a00856040518263ffffffff167c0100000000000000000000000000000000000000000000000000000000028152600401808273ffffffffffffffffffffffffffffffffffffffff1673ffffffffffffffffffffffffffffffffffffffff168152602001915050600060405180830381600087803b151561210857600080fd5b6102c65a03f1151561211957600080fd5b5050505b7f900315df34b75ad2268d27c7d161ac82e1961ced587aa93250f695ce214bc685858584604051808473ffffffffffffffffffffffffffffffffffffffff1673ffffffffffffffffffffffffffffffffffffffff1681526020018373ffffffffffffffffffffffffffffffffffffffff1673ffffffffffffffffffffffffffffffffffffffff168152602001828152602001935050505060405180910390a1819250505092915050565b600080600080600086925060008373ffffffffffffffffffffffffffffffffffffffff1663e24e8a6a6000604051602001526040518163ffffffff167c0100000000000000000000000000000000000000000000000000000000028152600401602060405180830381600087803b151561224057600080fd5b6102c65a03f1151561225157600080fd5b505050604051805190501415806122ef575060008373ffffffffffffffffffffffffffffffffffffffff1663ed9bbff56000604051602001526040518163ffffffff167c0100000000000000000000000000000000000000000000000000000000028152600401602060405180830381600087803b15156122d157600080fd5b6102c65a03f115156122e257600080fd5b5050506040518051905014155b156128c5578273ffffffffffffffffffffffffffffffffffffffff1663fa52c7d8876000604051604001526040518263ffffffff167c0100000000000000000000000000000000000000000000000000000000028152600401808273ffffffffffffffffffffffffffffffffffffffff1673ffffffffffffffffffffffffffffffffffffffff1681526020019150506040805180830381600087803b151561239657600080fd5b6102c65a03f115156123a757600080fd5b50505060405180519060200180519050925050818401935060078373ffffffffffffffffffffffffffffffffffffffff1663c19d93fb6000604051602001526040518163ffffffff167c0100000000000000000000000000000000000000000000000000000000028152600401602060405180830381600087803b151561242d57600080fd5b6102c65a03f1151561243e57600080fd5b50505060405180519050146124dc578273ffffffffffffffffffffffffffffffffffffffff1663ed9bbff56000604051602001526040518163ffffffff167c0100000000000000000000000000000000000000000000000000000000028152600401602060405180830381600087803b15156124b957600080fd5b6102c65a03f115156124ca57600080fd5b50505060405180519050905080612567565b8273ffffffffffffffffffffffffffffffffffffffff1663e24e8a6a6000604051602001526040518163ffffffff167c0100000000000000000000000000000000000000000000000000000000028152600401602060405180830381600087803b151561254857600080fd5b6102c65a03f1151561255957600080fd5b505050604051805190509050805b50600115158373ffffffffffffffffffffffffffffffffffffffff1663da16fe8d6000604051602001526040518163ffffffff167c0100000000000000000000000000000000000000000000000000000000028152600401602060405180830381600087803b15156125d857600080fd5b6102c65a03f115156125e957600080fd5b50505060405180519050151514156126985780828473ffffffffffffffffffffffffffffffffffffffff1663fb92bdd86000604051602001526040518163ffffffff167c0100000000000000000000000000000000000000000000000000000000028152600401602060405180830381600087803b151561266957600080fd5b6102c65a03f1151561267a57600080fd5b505050604051805190500281151561268e57fe5b0484019350612816565b8773ffffffffffffffffffffffffffffffffffffffff1663ad04324f888884868873ffffffffffffffffffffffffffffffffffffffff166312ff35bc6000604051602001526040518163ffffffff167c0100000000000000000000000000000000000000000000000000000000028152600401602060405180830381600087803b151561272457600080fd5b6102c65a03f1151561273557600080fd5b505050604051805190500281151561274957fe5b046040518463ffffffff167c0100000000000000000000000000000000000000000000000000000000028152600401808473ffffffffffffffffffffffffffffffffffffffff1673ffffffffffffffffffffffffffffffffffffffff1681526020018373ffffffffffffffffffffffffffffffffffffffff1673ffffffffffffffffffffffffffffffffffffffff1681526020018281526020019350505050600060405180830381600087803b151561280157600080fd5b6102c65a03f1151561281257600080fd5b5050505b8273ffffffffffffffffffffffffffffffffffffffff16639bf71e1a876040518263ffffffff167c0100000000000000000000000000000000000000000000000000000000028152600401808273ffffffffffffffffffffffffffffffffffffffff1673ffffffffffffffffffffffffffffffffffffffff168152602001915050600060405180830381600087803b15156128b057600080fd5b6102c65a03f115156128c157600080fd5b5050505b8394505050505093925050505600a165627a7a723058206f3c00a1753e728d8fcb341cfb3af9db954f6d74bf1a4a2d60a0c3adc0f36f290029",
  "source": "pragma solidity ^0.4.8;\n\nimport \"./Project.sol\";\nimport \"./TokenRegistry.sol\";\nimport \"./ReputationRegistry.sol\";\nimport \"./ProjectRegistry.sol\";\n\nlibrary ProjectLibrary {\n\n  struct Reward {\n    uint256 weiReward;\n    uint256 reputationReward;\n    address claimer;\n  }\n\n  event tokenRefund(address staker, uint256 refund);\n  event reputationRefund(address projectAddress, address staker, uint256 refund);\n  // =====================================================================\n  // UTILITY FUNCTIONS\n  // =====================================================================\n  modifier onlyInState(address _projectAddress, uint256 _state) {\n    Project project = Project(_projectAddress);\n    require(project.state() == _state);\n    _;\n  }\n\n  function isStaker(address _projectAddress, address _staker) public view returns(bool) {\n    Project project = Project(_projectAddress);\n    return project.stakedTokenBalances(_staker) > 0 || project.stakedReputationBalances(_staker) > 0;\n  }\n\n  function percent(uint256 numerator, uint256 denominator, uint256 precision) internal pure returns (uint256) {\n     // caution, check safe-to-multiply here\n    uint256 _numerator  = numerator * 10 ** (precision+1);\n    // with rounding of last digit\n    return ((_numerator / denominator) + 5) / 10;\n  }\n\n  function calculateWeightOfAddress(address _projectAddress, address _address) public view returns (uint256) {\n    uint256 reputationWeight;\n    uint256 tokenWeight;\n    Project project = Project(_projectAddress);\n    project.totalReputationStaked() != 0\n      ? reputationWeight = percent(project.stakedReputationBalances(_address), project.totalReputationStaked(), 2)\n      : reputationWeight = 0;\n    project.totalTokensStaked() != 0\n      ? tokenWeight = percent(project.stakedTokenBalances(_address), project.totalTokensStaked(), 2)\n      : tokenWeight = 0;\n    return (reputationWeight + tokenWeight) / 2;\n    /* return percent((stakedReputationBalances[_address] + stakedTokenBalances[_address]), (totalTokensStaked + totalReputationStaked), 2); */\n  }\n\n  function timesUp(address _projectAddress) public view returns (bool) {\n    return (now > Project(_projectAddress).nextDeadline());\n  }\n\n  function isStaked(address _projectAddress) public view returns (bool) {\n    Project project = Project(_projectAddress);\n    return project.weiCost() <= project.weiBal() && project.reputationCost() <= project.totalReputationStaked();\n  }\n\n  /* ####### NEEDS TESTS ####### */\n  function refundStaker(address _projectAddress, address _staker) public returns (uint256 _refund) {  //called by THR or WR, allow return of staked, validated, and\n    Project project = Project(_projectAddress);\n    /* require(msg.sender == address(tokenRegistry) ||  msg.sender == address(reputationRegistry)); */\n    require(project.state() == 6);\n    if (project.isTR(msg.sender)) {\n      return handleTokenStaker(msg.sender, _projectAddress, _staker);\n    } else if (project.isRR(msg.sender)) {\n      return handleReputationStaker(_projectAddress, _staker);\n    }\n  }\n\n  function handleTokenStaker(address _tokenRegistry, address _projectAddress, address _staker) internal returns (uint256 _refund) {\n    uint256 refund;     //tokens\n    Project project = Project(_projectAddress);\n    if(project.totalTokensStaked() != 0) {\n      refund = project.stakedTokenBalances(_staker);\n      project.clearTokenStake(_staker);\n    }\n    refund += validatorRewardHandler(_tokenRegistry, _projectAddress, _staker);\n    tokenRefund(_staker, refund);\n    return refund;\n  }\n\n  function validatorRewardHandler(address _tokenRegistry, address _projectAddress, address _staker) internal returns (uint256 _refund) {\n    uint256 refund;\n    Project project = Project(_projectAddress);\n    if(project.totalValidateNegative() != 0 || project.totalValidateAffirmative() != 0) {\n      var (,stake) = project.validators(_staker);\n      refund += stake;\n      uint256 denom;\n      project.state() == 7\n        ? denom = project.totalValidateNegative()\n        : denom = project.totalValidateAffirmative();\n        if (project.opposingValidator() == true) {\n          refund += project.validateReward() * stake / denom;\n        } else {\n          TokenRegistry(_tokenRegistry).rewardValidator(_projectAddress, _staker, (project.weiCost() * stake / denom));\n        }\n      project.clearValidatorStake(_staker);\n    }\n    return refund;\n  }\n\n  function handleReputationStaker(address _projectAddress, address _staker) internal returns (uint256 _refund) {\n    uint256 refund;\n    Project project = Project(_projectAddress);\n    if(project.totalReputationStaked() != 0) {\n      refund = project.stakedReputationBalances(_staker);\n      project.clearReputationStake(_staker);\n    }\n    reputationRefund(_projectAddress, _staker, refund);\n    return refund;\n  }\n\n  // =====================================================================\n  // VALIDATOR FUNCTIONS\n  // =====================================================================\n  function validate(address _projectAddress, address _staker, uint256 _tokens, bool _validationState) public onlyInState(_projectAddress, 4) {\n    //check for free tokens done in THR\n    //increments validation tokens in Project.sol only\n    // NEEDS A CHECK FOR REMOVING VALIDATION / CHANGING VALIDATION\n    Project project = Project(_projectAddress);\n    require(_tokens > 0);\n    if (_validationState == true) {\n      project.setValidator(_staker, 1, _tokens);\n      project.addValidationTokens(1, _tokens);\n    }\n    else if (_validationState == false){\n      project.setValidator(_staker, 0, _tokens);\n      project.addValidationTokens(0, _tokens);\n    }\n  }\n\n  function setValidationState(address _tokenRegistry, address _reputationRegistry, address _projectAddress, bool isPassed) public {\n    Project project = Project(_projectAddress);\n    if(isPassed) {                          // project succeeds\n      project.setValidationReward(0);\n    } else {                                // project fails\n      burnStake(_tokenRegistry, _reputationRegistry, _projectAddress);\n      project.setValidationReward(1);\n    }\n    if (project.validateReward() == 0) {\n      project.setOpposingValidator();\n    }\n  }\n\n  function burnStake(address _tokenRegistry, address _reputationRegistry, address _projectAddress) internal {\n    Project project = Project(_projectAddress);\n    TokenRegistry(_tokenRegistry).burnTokens(project.totalTokensStaked());\n    ReputationRegistry(_reputationRegistry).burnReputation(project.totalReputationStaked());\n    project.clearStake();\n  }\n\n  // =====================================================================\n  // TASK FUNCTIONS\n  // =====================================================================\n\n  /* ####### NEEDS TESTS ####### */\n  function claimTask(address _projectAddress, bytes32 _taskHash, uint256 _weiVal, uint256 _reputationVal, address _claimer) public onlyInState(_projectAddress, 3) {\n    Project project = Project(_projectAddress);\n    //###############################################\n    var (,claimer) = project.taskRewards(_taskHash);\n    require(claimer == 0);\n    project.setTaskReward(_taskHash, _weiVal, _reputationVal, _claimer);\n  }\n\n  /* ####### NEEDS TESTS ####### */\n  function claimTaskReward(address _tokenRegistry, address _projectAddress, bytes32 _taskHash, address _claimer) public onlyInState(_projectAddress, 6) returns (uint256) {\n    Project project = Project(_projectAddress);\n    var (weiReward, reputationReward, claimer) = project.taskRewards(_taskHash);\n    require(claimer == _claimer);\n    project.setTaskReward(_taskHash, 0, 0, 0);\n    TokenRegistry(_tokenRegistry).transferWeiReward(_claimer, weiReward);\n    return reputationReward;\n  }\n}\n",
  "sourcePath": "/Users/shokishoki/development/consensys/distribute/contracts/contracts/ProjectLibrary.sol",
  "compiler": {
    "name": "solc",
    "version": "0.4.18+commit.9cf6e910.Emscripten.clang"
  },
  "schemaVersion": "1.0.1",
  "updatedAt": "2018-03-01T01:03:11.643Z"
}